:020000040800F2
:10000000280A00209D010008F31100084B11000888
:10001000F111000811020008ED1D000800000000A9
:10002000000000000000000000000000C1140008F3
:10003000810200080000000069140008591500083A
:10004000B7010008B7010008B7010008B7010008B0
:10005000B7010008B7010008B7010008B7010008A0
:10006000B7010008B7010008B7010008B701000890
:10007000B7010008B7010008B7010008B701000880
:10008000B7010008B7010008B7010008B701000870
:10009000B7010008B7010008B7010008B701000860
:1000A000B7010008B7010008B7010008B701000850
:1000B000B7010008B1150008B7010008B701000832
:1000C000B7010008B7010008B7010008B701000830
:1000D000B7010008FD1C0008B7010008B7010008BF
:1000E000B7010008B7010008B7010008B701000810
:1000F000B7010008B7010008B7010008B701000800
:10010000B7010008B7010008B7010008B7010008EF
:10011000B7010008B7010008B7010008B7010008DF
:10012000B7010008B7010008B7010008B7010008CF
:10013000B7010008B7010008B7010008B7010008BF
:10014000B7010008B7010008B7010008B7010008AF
:10015000B7010008B7010008B7010008B70100089F
:10016000B7010008B7010008B7010008B70100088F
:10017000B7010008B7010008B7010008000000003F
:10018000B7010008B7010008DFF80CD000F02EF826
:1001900000480047FD1F0008280A00200648804745
:1001A00006480047FEE7FEE7FEE7FEE7FEE7FEE75C
:1001B000FEE7FEE7FEE7FEE75D150008890100089F
:1001C00030B50B46014600202022012409E021FA27
:1001D00002F59D4205D303FA02F5491B04FA02F524
:1001E0002844151EA2F10102F1DC30BD064C074D7A
:1001F00006E0E06840F0010394E8070098471034F7
:10020000AC42F6D3FFF7C4FF9C200008BC200008D6
:10021000FEE700000E4810B5016886B041F0040109
:10022000016000680B4C00F004000590FF20009076
:10023000012001900290032003906946204600F0BF
:1002400033F80122FF21204600F00EF906B010BD60
:100250003038024000080240017950F8012F61F364
:100260001F6206494A60C379426863F31F628A606D
:10027000C27A806862F31F60C86070471400002073
:10028000704790F83510022903D080214165012084
:100290007047052180F835100068016821F00101E0
:1002A00001600020704700002DE9F84FDFF88C91C5
:1002B000002209F1040A0AF1040B4FF00F080BF1B8
:1002C000040E01260B6896403340B34271D14C684E
:1002D000022C01D0122C11D1D40800EB84073D6A06
:1002E0005407E40E08FA04FC25EA0C05D1F810C006
:1002F0000CFA04FC4CEA050CC7F820C0076854004F
:10030000032591F804C0A5400CF0030CAF430CFA90
:1003100004FC4CEA070CC0F800C04F68012F05D060
:10032000022F03D0112F01D0122F11D18768D1F8DD
:100330000CC0AF430CFA04FC4CEA070CC0F808C030
:100340004768B7430E79C6F3001696403E434660B1
:10035000C668AE438D68A5403543C5604C68E4006F
:1003600065D5374C256845F480452560246822F022
:10037000030504F480440094324C2E19D6F8087812
:100380009407250F08FA05F4A7432F4CA04201D18A
:10039000002424E02D4CA04201D101241FE02C4C6C
:1003A000A04201D102241AE02A4CA04202D1032427
:1003B00015E03CE0284CA04201D104240FE0274C7A
:1003C000A04201D105240AE0254CA04201D1062417
:1003D00005E0244CA04201D1072400E00824AC40F1
:1003E0003C43C6F80848D9F800404D464E689C4347
:1003F000F60300D51C432C60DAF8004055464E68E1
:100400009C43B60300D51C432C60DBF800405D46DE
:100410004E689C43F60200D51C432C60DEF8004079
:1004200075464E689C43B60200D51C432C60521C96
:10043000102AFFF446AFBDE8F88F0000003C0140F1
:1004400044380240003001400000024000040240F5
:1004500000080240000C024000100240001402405C
:1004600000180240001C02400AB181617047090473
:10047000FBE7000001480068000C7047002004E022
:10048000014800687047000004000020024801682D
:10049000491C01607047000004000020094810B5A5
:1004A000016841F400710160016841F480610160FC
:1004B000052000F049F80F2000F006F800F018F8C9
:1004C000002010BD003C024010B5044607484FF420
:1004D0007A710068B0FBF1F000F000FB00222146C9
:1004E000501E00F011F8002010BD00000000002098
:1004F000704700F01F02012191404009800000F187
:10050000E020C0F800117047F0B40E4B1B68C3F335
:100510000223C3F10704042C00D904241D1D072D58
:1005200001D2002300E0DB1E012606FA04F56D1E51
:100530000D409D409E40761E164045EA0601F0BCE7
:1005400000F058BE0CED00E0064A00F0070110680C
:100550004FF6FF03184040EA0120034908431060AA
:10056000704700000CED00E00000FA052DE9F047AF
:10057000DFF85C9104460E46D9F8000000F00F0148
:10058000F0B28046B14207D289F80000D9F80000E5
:1005900000F00F00B04271D120784E4F800705D592
:1005A0003868A16820F0F000084338602078C00760
:1005B00056D048496068083901281AD002281BD053
:1005C000032819D009688907002957DA396821F00A
:1005D000030101433960FFF753FF0546606841F2AC
:1005E0008831012811D002281CD003288A4625D042
:1005F00032E009688903E7E709688901E4E7FFF762
:100600003FFF411B514501D923E08A463868C0F3BA
:1006100081000128F3D123E0FFF732FF411B514550
:1006200001D916E08A463868C0F381000228F3D168
:1006300016E0FFF725FF411B51450AD83868C0F383
:1006400081000328F5D10BE0FFF71AFF411B51454C
:1006500002D90320BDE8F087386810F00C0FF3D101
:10066000D9F80010484601F00F01B14208D980F8CE
:100670000080006800F00F00B04201D00120E9E7DF
:100680002078400705D53868E16820F4E050084339
:1006900038602078000706D53868216920F460406A
:1006A00040EAC100386000F04BF83968F02292FA55
:1006B000A2F201F0F001B2FA82F2D140064A515C96
:1006C000C840064908600F20FFF7FEFE0020C1E782
:1006D000003C02400838024084200008000000204E
:1006E00008480949006809684FF4E05292FAA2F2FA
:1006F00001F4E051B2FA82F2D140044A515CC840A0
:1007000070470000000000200838024094200008D4
:1007100008480949006809684FF4604292FAA2F259
:1007200001F46041B2FA82F2D140044A515CC840FF
:1007300070470000000000200838024094200008A4
:1007400030B51948006810F00C01184812D0441058
:1007500004290ED008290DD1134A121F11681368FD
:1007600001F03F015D0247F6C07304D5B4FBF1F020
:1007700003E0204630BDB0FBF1F01168194093FA58
:10078000A3F3B3FA83F3D940484311684FF44032DE
:1007900092FAA2F201F44031B2FA82F2D140491C3D
:1007A0004900B0FBF1F030BD083802400024F400ED
:1007B0002DE9F84F04460078DFF8F4A2BD4DC007DC
:1007C00048D0DAF800105046C1F38101012908D061
:1007D0000068C0F3810002280AD1281D0068400289
:1007E00006D52868800335D56068002870D031E0D0
:1007F0006068B0F5803F10D0B0F5A02F286810D009
:1008000020F480302860286820F480202860606808
:10081000A0B1FFF735FE06460CE0286840F48030B2
:10082000F4E740F480202860F7E7FFF729FE801BFB
:10083000642873D828688003F7D50BE0FFF720FE03
:10084000064604E0FFF71CFE801B6428F1D82868E8
:100850008003F7D42078DFF8608280074FF0010B27
:100860004FF0000943D5DAF80010504611F00C0F94
:100870004FF0F80709D00068C0F3810002280BD1BF
:100880008B48001F0068400206D42868800713D5F3
:10089000E06801281CD10FE0E068D0B1C8F800B0D2
:1008A000FFF7EEFD064604E0FFF7EAFD801B022895
:1008B000BFD828688007F7D5286897FAA7F221697A
:1008C000B2FA82F220F0F8009140084328600EE06E
:1008D000EBE0C8F80090FFF7D3FD064604E0FFF711
:1008E000CFFD801B022819D828688007F7D420780C
:1008F000000722D56E4F714861696C3779B1C0F835
:1009000000B0FFF7BDFD064604E0FFF7B9FD801B10
:10091000022803D838688007F7D50EE079E0C0F8E0
:100920000090FFF7ADFD064604E0FFF7A9FD801B30
:1009300002286ED838688007F7D42078400750D551
:100940005B483830016841F08051016000685C4FBD
:1009500000F080500090386840F480703860FFF7F5
:100960008FFD064604E0FFF78BFD801B022850D860
:100970003868C005F7D54E4FA068683701280FD0FA
:100980000528386810D020F001003860386820F061
:1009900004003860A068B0B1FFF772FD06460EE0B3
:1009A000386840F00100F4E740F004003860F7E7F1
:1009B000FFF766FD811B41F2883081426DD83868AF
:1009C0008007F5D50DE0FFF75BFD064606E0FFF773
:1009D00057FD811B41F2883081425ED8386880071C
:1009E000F5D4A069F0B3DAF80010C1F3810102294F
:1009F0005BD00228484605D0C8F86000FFF740FDEC
:100A000004464DE04746C8F86000FFF739FD06464A
:100A100005E042E0FFF734FD801B02283DD828683E
:100A20008001F7D4D4E90701084347F6C07292FA6F
:100A3000A2F2616AB2FA82F29140A26A4FF0FF33E9
:100A400003EB52024FF4403393FAA3F3B3FA83F368
:100A50009A4011434FF0706292FAA2F20843B2FA40
:100A600082F200E01FE0E16A914008431049091F4B
:100A70000860C7F860B0FFF703FD044604E0FFF725
:100A8000FFFC001B022808D828688001F7D50AE07F
:100A9000FFF7F6FC001B022802D90320BDE8F88FFF
:100AA00028688001F4D40020F8E70120F6E7000070
:100AB000083802400038024000004742800E47429A
:100AC000007000404FF0E0210428086903D020F0B6
:100AD00004000861704740F00400FAE710B5401EBA
:100AE000B0F1807F01D3012010BD4FF0E0246061A0
:100AF0000F21601700F07EFB0020A061072020611D
:100B0000002010BD7047704710B5040003D094F862
:100B1000390010B107E0012010BD002084F8380032
:100B2000204600F00DF8022084F83900211D2068CD
:100B300000F0AEFD012084F83900002010BD000057
:100B400008B500680B49884212D10B48016841F092
:100B5000020101600068032200F002000090012100
:100B60001D20FFF7D1FCBDE808401D20FFF7C1BCE8
:100B700008BD000000040040403802400168CA6817
:100B800042F00102CA600068016841F001010160A1
:100B900000207047704770B50446006801694FF047
:100BA0000005C943890715D4C168C943890711D411
:100BB000E91E0161012020762068806980072046B7
:100BC00002D0FFF7E7FF04E000F098F8204600F0BD
:100BD00043F9257620680169C943490717D4C168DC
:100BE000C943490713D46FF0040101610220207644
:100BF0002068806910F4407F204602D0FFF7CAFFCA
:100C000004E000F07BF8204600F026F92576206805
:100C10000169C943090716D4C168C943090712D439
:100C20006FF008010161042020762068C069800708
:100C3000204602D0FFF7AEFF04E000F05FF8204648
:100C400000F00AF9257620680169C943C90617D45E
:100C5000C168C943C90613D46FF0100101610820AF
:100C600020762068C06910F4407F204602D0FFF74C
:100C700091FF04E000F042F8204600F0EDF8257600
:100C800020680169C943C90708D1C168C943C907B8
:100C900004D1891E0161204600F0FCF8206801693A
:100CA000C943090609D4C168C943090605D46FF0D0
:100CB000800101612046FFF725FF20680169C943D3
:100CC000490609D4C168C943490605D46FF04001FB
:100CD0000161204600F0DFF820680169C9438906F8
:100CE0000BD4C168C943890607D46FF020010161A4
:100CF0002046BDE87040FFF706BF70BD704770B575
:100D0000044690F838000D4601280DD0012684F8DD
:100D10003860022084F8390042B1042A18D0082A29
:100D20002AD00C2A4DD139E0022070BD206800F095
:100D30001BFD2068816941F008018161206881699B
:100D400021F004018161206881692A69114311E061
:100D5000206800F035FD2068816941F400618161FF
:100D60002068816921F480618161206881692A6934
:100D700041EA0221816124E0206800F053FD2068EF
:100D8000C16941F00801C1612068C16921F0040115
:100D9000C1612068C1692A69114311E0206800F02F
:100DA00071FD2068C16941F40061C1612068C169B9
:100DB00021F48061C1612068C1692A6941EA022188
:100DC000C16184F83960002084F8380070BD10B526
:100DD000040003D094F8390010B107E0012010BDE1
:100DE000002084F83800204600F00CF8022084F837
:100DF0003900211D206800F04BFC012084F83900E7
:100E0000002010BD124800B5016887B041F0040110
:100E10000160006800F0040005900D48103801687A
:100E200041F0080101600068012100F00800059010
:100E30004FF4704000900220CDE901010321CDE97B
:100E4000031069460348FFF72FFA07B000BD000002
:100E500040380240000C02407047000010B50446C4
:100E60000068012200F074FC08482168814202D029
:100E70000748814203D1486C40F400404864206830
:100E8000016841F001010160002010BD0000014037
:100E900000040140704770477047000070B5026859
:100EA00004461068D168536910F00F0F50D003F05A
:100EB000010501F4907635435DD0C20705D0CA051F
:100EC00003D5E26B42F00102E263420705D5DA077F
:100ED00003D0E26B42F00202E263820705D5DA0733
:100EE00003D0E26B42F00402E263020705D5DA07A1
:100EF00003D0E26B42F00802E263E26B002A33D0D7
:100F0000800604D5880602D5204600F0F9FC20684A
:100F10004069E16BC0F38010090700D428B3204674
:100F200000F0E0FC2068416949061AD5416921F0CA
:100F300040014161606BA0B11B490165606BFFF727
:100F4000A0F9002810D0606B016DBDE87040084723
:100F5000830610D58B060ED52046BDE8704000F004
:100F6000CFBC2046FFF798FF70BD2046FFF794FFE7
:100F70000020E06370BD030606D50B0604D52046AD
:100F8000BDE8704000F058BE4006F3D54806F1D5E4
:100F9000D168204621F04001D160202184F8391029
:100FA00000F0D2F870BD0000D518000870B504003C
:100FB00004D094F83900002510B106E0012070BD7E
:100FC00084F83850204600F023F8242084F83900B3
:100FD0002068C16821F40051C160204600F0D6FCB1
:100FE0002068016921F4904101612068416921F084
:100FF0002A0141612068C16841F40051C160E56384
:10100000202084F8390084F83A00002070BD0000E8
:1010100010B500681A4986B088422FD11948016876
:1010200041F001010160006800F0010005901548E1
:101030001430016841F0100101600068012100F0E6
:10104000100005904FF4007000900220CDE90101DE
:10105000039007200C4C049069462046FFF724F9C2
:101060002115009169462046FFF71EF92520FFF75C
:1010700040FA032211462520FFF746FA06B010BDBC
:101080000010014030380240000002402DE9F843D2
:10109000044690F83A001E4617460D46202850D1C7
:1010A000A5B19FB194F8380001284AD0012084F8F6
:1010B00038004FF00008C4F83C80222084F83A0041
:1010C000FFF7DEF9A7858146E78530E00120BDE81E
:1010D000F883E08D401EE085A0684B46B0F5805F48
:1010E0004FF000024FF020012046009604D000F09F
:1010F000D4FD98B10320EAE700F0CFFD0028F9D134
:10110000206900282068406803D0C1B225F8011B7F
:101110000DE0C0F3080125F8021B08E02069002853
:101120002068406801D000F07F0005F8010BE08DD9
:101130000028CED1202084F83A0084F8388000209E
:10114000C5E70220C3E770477047FEE730B5144C8F
:1011500087B00020216841F040012160216801250D
:1011600001F0400105914FF43851CDE90010032002
:10117000CDE9025069460B48FFF796F8206840F029
:10118000010020602068009500F001000590022019
:10119000029069460448FFF787F807B030BD0000A9
:1011A0003038024000180240000002400E4810B5DE
:1011B000016886B041F00401016000680B4C00F04A
:1011C000040005900F200090012001900290032060
:1011D000039069462046FFF767F801220F21204659
:1011E000FFF742F906B010BD303802400008024057
:1011F000FEE770470907090E002806DA00F00F0025
:1012000000F1E02080F8141D704700F1E02080F824
:101210000014704710B40021084B0A46002003EB6D
:10122000C004401CC0B262548028F8D3491CC9B223
:101230000829F3D310BC00F0CFB80000280000202C
:1012400070B55F4886B00026016841F00101016079
:10125000016801F001010591016841F0020101609E
:10126000016801F002010591016841F0040101608B
:10127000016801F004010591016841F00801016075
:10128000016801F008010591016841F01001016059
:101290000068012400F0100005901020CDE9000442
:1012A0000220CDE9024069464648FEF7FDFF4FF4B3
:1012B000E050009069464448FEF7F6FF4FF4425074
:1012C000009069464148FEF7EFFF4148C0F8B4423C
:1012D000C0F8B0423F4DC5F8B042C5F8AC42C5F8C1
:1012E000A862642005F52A7500F056FE2C600021E6
:1012F000AE2000F095F80021D52000F091F80021F3
:10130000502000F08DF80021A82000F089F800217D
:101310003F2000F085F80021D32000F081F8002163
:10132000084600F07DF80021402000F079F8002107
:101330008D2000F075F80021142000F071F80021D4
:10134000202000F06DF80021022000F069F8002153
:10135000A12000F065F80021C02000F061F8002114
:10136000DA2000F05DF80021122000F059F8002189
:10137000812000F055F80021EF2000F051F8002105
:10138000D92000F04DF80021F12000F049F80021AB
:10139000DB2000F045F80021302000F041F800216A
:1013A000A42000F03DF80021A62000F039F800212B
:1013B000AF2000F035F8FFF72DFF06B070BD00003C
:1013C000303802400000024000040240000C02409D
:1013D000008041420080404270B5104E002505F16A
:1013E000B000C0B2002100F01BF80021084600F058
:1013F00017F80021102000F013F8002406EBC400B9
:101400000121405D00F00CF8641CE4B2802CF5D39F
:101410006D1CEDB2082DE2D370BD00002800002045
:1014200070B50F4DC5F8AC120023C5F8B0320D4AA7
:1014300019460124C2F8B032060602D5C2F8B442F9
:1014400001E0C2F8B432C2F8B0424006491C000EB6
:10145000C9B20829EED3C5F8B042C5F8AC4270BD98
:10146000008040420080414270470000124A10B4A0
:101470005178002321B1012908D002290ED007E0BC
:10148000AA2805D10120507010BC7047AE2801D0A9
:101490005370F9E7022050701370F5E71178074C8C
:1014A000491CC9B2117060540C29EDD35370204609
:1014B00010BCFEF7D1BE0000140000203005002053
:1014C0007047000070B5214C92B00025266846F0A8
:1014D00080562660246804F0805411941C4C2668C1
:1014E00046F48046266024680DF1240C04F4804400
:1014F00011940124009424040194022406948CE89D
:101500000D006605CDE907616846FFF751F900B1A6
:10151000FEE70CA90F2081E831004FF4A0500F9096
:101520004FF48050109005210CA8FFF71FF800B170
:10153000FEE7FEF79FFF41F20101884204D1054812
:10154000016841F48071016012B070BD4038024002
:1015500000700040003C0240FEF798BF1048016850
:1015600041F4700101600F48016841F00101016020
:101570000C4A00210832116002680B4B1A400260CD
:10158000031D0A4A1A60026822F48022026005489C
:101590000C3001600249580680390860704700002D
:1015A00088ED00E000380240FFFFF6FE1030002416
:1015B0000148FFF7F0BA00003C050020094A10B5C9
:1015C000074BC2E900310021C2E902101046116147
:1015D000FFF79AFABDE810400248FFF7CFBA0000C3
:1015E000000400403C05002070B5284A0446264807
:1015F000C2E900010020C2E9020410611046FFF7B1
:10160000E6FB224902263C31602564088E60C1E970
:10161000005400221D48FFF772FB1C48042258307A
:1016200001468660C0E900545838FFF768FB174848
:101630000822743001468660C0E900547438FFF710
:101640005EFB12480C22903001468660C0E90054CF
:101650009038FFF754FB00210C48FFF7FFFB0028F0
:10166000F9D104210948FFF7F9FB0028F9D1082135
:101670000648FFF7F3FB0028F9D10C210348FFF7D8
:10168000EDFB0028F9D170BD00080040780500206E
:10169000F0B50268234D244E244FDFF894C0254B4B
:1016A0004FF0804EA84209D0704507D0B04205D017
:1016B000B84203D0604501D0984203D122F07004B3
:1016C0004A682243A8421BD0704519D0B04217D0B7
:1016D000B84215D0604513D0984211D0164CA042A4
:1016E0000ED0164CA0420BD0154CA04208D0154C81
:1016F000A04205D0144CA04202D0144CA04203D109
:1017000022F44074CA68224302608A68C2620A688E
:101710008262A84201D0984201D109690163012186
:101720004161F0BD0000014000040040000800409D
:10173000000C004000040140004001400044014012
:101740000048014000180040001C004000200040FC
:1017500010B50123046A8B409C430462036A8A40EB
:101760001343036210BD000030B5026A22F001028B
:101770000262056A426883690C6823F073031C43A4
:101780008B6825F002052B430B4DA84202D00B4D70
:10179000A8420BD123F00805CB6822F440722B43FA
:1017A0004D6923F0040315438A692A43426084612A
:1017B00049684163036230BD0000014000040140FC
:1017C00030B5026A22F010020262036A426884693C
:1017D0000D6824F4E64444EA05248D6823F02003D0
:1017E00043EA05130D4DA84202D00D4DA8420ED17B
:1017F000CD6823F0800343EA05134D6922F440626B
:1018000042EA85028D6923F0400342EA8502426084
:10181000846149688163036230BD000000000140BB
:101820000004014030B5026A22F480720262036A49
:101830004268C46923F4007324F073050C682C43D8
:101840008D6843EA05230D4DA84202D00C4DA842F5
:101850000ED1CD6823F4006343EA05234D6922F4D9
:10186000405242EA05128D6923F4806342EA051270
:101870004260C4614968C163036230BD0000014039
:101880000004014030B5026A22F480520262036A09
:101890004268C4690D6824F4E64444EA05248D686E
:1018A00023F4005343EA0533084DA84202D0084D03
:1018B000A84204D14D6922F4804242EA8512426076
:1018C000C46149680164036230BD0000000001404A
:1018D0000004014010B5806B0021C185C184FFF771
:1018E000DBFA10BD0168CA6822F49072CA60016810
:1018F0004A6922F001024A61202180F83A107047BB
:1019000010B590F83A10222901D0022010BD81684C
:10191000B1F5805F11D00169002901681FD04968C5
:1019200001F07F03816A4A1C82620B70C18D491EDF
:101930000904090CC18518D026E00269816A002AD1
:101940000268526805D0D2B20A80816A491C81625D
:10195000ECE7C2F308020A80816A891CF7E74A684B
:10196000816A4B1C83620A70E0E70168CA6822F44E
:101970009072CA6001684A6922F001024A6120211E
:1019800080F83A10FFF7DFFB002010BD2DE9F04191
:1019900004460068016921F44052E1681143016185
:1019A0002068C16849F20C6291432369A268E56925
:1019B0001A4363692B431A430A43C2602068416992
:1019C000A26921F440710A434261E0696425B0F5DF
:1019D000004F974A974920684FF032083FD088421D
:1019E00001D090427CD1FEF793FE00EBC00101EBE9
:1019F000001061688900B0FBF1F6FEF789FE00EB8C
:101A0000C00101EB001061688900B0FBF1F0B0FB90
:101A1000F5F06FF01801484306EB800108EB011068
:101A2000B0FBF5F000F0F006FEF772FE00EBC0012F
:101A300001EB001061688900B0FBF1F0B0FBF5F03C
:101A400006EB0016FEF764FE00EBC00101EB001090
:101A500061688900B0FBF1F7FEF75AFED2E08842D8
:101A600001D090423DD1FEF753FE00EBC00101EBE7
:101A7000001061684900B0FBF1F0B0FBF5F0060121
:101A8000FEF746FE00EBC00101EB00106168490063
:101A9000B0FBF1F7FEF73CFE00EBC00101EB0010DC
:101AA00061684900B0FBF1F0B0FBF5F06FF0180190
:101AB000484307EB800108EBC100B0FBF5F000F0F4
:101AC000F80006EB4006FEF723FE00EBC00101EB39
:101AD000001061684900B0FBF1F7FEF719FE3CE029
:101AE00055E0FEF7FDFD00EBC00101EB0010616861
:101AF0004900B0FBF1F0B0FBF5F00601FEF7F0FD98
:101B000000EBC00101EB001061684900B0FBF1F788
:101B1000FEF7E6FD00EBC00101EB00106168490033
:101B2000B0FBF1F0B0FBF5F06FF01801484307EBA4
:101B3000800108EBC100B0FBF5F000F0F80006EB07
:101B40004006FEF7CDFD00EBC00101EB001061681F
:101B50004900B0FBF1F7FEF7C3FD00EBC00101EB5C
:101B6000001061684900B0FBF1F0B0FBF5F06FF0D8
:101B70001801484307EB800108EBC100B0FBF5F00A
:101B800000F00700216830448860BDE8F081FEF76E
:101B9000A7FD00EBC00101EB001061688900B0FBFC
:101BA000F1F6FEF79DFD00EBC00101EB001061684E
:101BB0008900B0FBF1F0B0FBF5F06FF0180148437D
:101BC00006EB800108EB0110B0FBF5F000F0F00629
:101BD000FEF786FD00EBC00101EB00106168890093
:101BE000B0FBF1F0B0FBF5F006EB0016FEF778FD68
:101BF00000EBC00101EB001061688900B0FBF1F758
:101C0000FEF76EFD00EBC00101EB0010616889007A
:101C1000B0FBF1F0B0FBF5F06FF01801484307EBB3
:101C2000800108EB0110B0FBF5F000F00F00A9E710
:101C3000001401400010014090F83910212901D012
:101C4000022070478168B1F5805F016A0BD04A1CA1
:101C50000262026809785160C18C491E0904090CAE
:101C6000C1840ED017E009880268C1F308015160F1
:101C700001690029016A02D0491C0162ECE7891C54
:101C8000FBE70168CA6822F08002CA600068C16888
:101C900041F04001C160002070472DE9F0411E462F
:101CA000174688460446069D1CE0681C1AD025B1DC
:101CB000FEF7E6FB801BA84214D92068C16821F416
:101CC000D071C1602068416921F00101416120208B
:101CD00084F8390084F83A00002084F838000320A2
:101CE000BDE8F0812068016838EA010004D00020D6
:101CF000B842DAD00020F3E70120F9E7F8B52B4825
:101D000000680068C04380064FD44FF47A73012204
:101D100069462648FFF7BAF9254C244E4FF00005D6
:101D2000608806F14006010416D441049DF80010B5
:101D300004D50A290CD140F4004014E00D2910D03C
:101D4000C0F30D02401C80B2B1546080C72800D996
:101D500065806088000425D5A0782070A580154F87
:101D60000CE040F480406080F3E7305CFFF77EFBDE
:101D700038684006FCD5A088401CA080A088217847
:101D80008842F2D30C48658001680CA000F030F85E
:101D90000E4801680EA000F02BF81048016810A052
:101DA00000F026F80148FFF779F8F8BD2804002074
:101DB0000C0000200010014018000020B7E7C9C83F
:101DC000D7B4CCAC3A25640D0A0000001C000020FA
:101DD000BDC7B6C83A25640D0A00000020000020E7
:101DE000BEE0C0EB3A25640D0A000000FEE70000EB
:101DF0000FB4054B10B503A9044A029800F018F877
:101E000010BC5DF814FB0000E91F0008240000204E
:101E100002E008C8121F08C1002AFAD170477047B3
:101E2000002001E001C1121F002AFBD17047000011
:101E30002DE9FF4F89B09B460446002506E0252882
:101E40000BD05A460B999047641C6D1C20780028D3
:101E5000F5D10DB02846BDE8F08F0027B846012225
:101E6000474900E0074314F8013F203B02FA03F022
:101E70000842F7D120782E2819D114F8010F47F025
:101E800004072A280ED06FF02F022078A0F130012D
:101E900009290CD808EB880102EB410100EB01088D
:101EA000641CF2E70A98641C50F8048B0A902078AE
:101EB0000028CED0642808D0692806D075281ED006
:101EC0005A460B9990476D1C58E00A994FF00A0941
:101ED00001C90A91002802DA40422D2102E03905A9
:101EE00004D52B218DF82010012103E0F90704D03F
:101EF0002021F7E78A4608AE0DE00021FAE70A99AB
:101F00004FF00A0901C90A91F7E74946FEF758F967
:101F1000303106F8011D0028F7D1ADEB060000F1C5
:101F20002009780701D44FF00108C84502DDA8EB6D
:101F3000090000E000208046002706E008A85A4675
:101F4000C05D0B9990476D1C7F1C5745F6DB04E084
:101F500030205A460B9990476D1CB8F10001A8F14A
:101F60000108F5DC05E016F8010B5A460B9990477D
:101F70006D1CB9F10001A9F10109F4DC641C65E7ED
:101F80000928010010B504460420FEF79BFD014816
:101F9000046010BD0800002070B5054600244FF411
:101FA0007A7603E0304600F005F8641CAC42F9D3C1
:101FB00070BD000070B54FF0E02500216C69094A42
:101FC000AB6912685043AA699A42FCD002D2A3EBD3
:101FD000020302E0A4EB0206334419441346814293
:101FE000F1D370BD0800002003490A685206FCD5F1
:101FF000C2B24A607047000000100140FEF74EFA7E
:102000000723022208214FF4A870FFF75BFAA820EB
:10201000FFF7B8FF4FF4E13000F01AF8FFF7C6F809
:10202000FFF794F8FFF70CF9FEF7F4F842F2CF014E
:1020300041F28730FFF7C2FA532140F2E730FFF751
:10204000D3FA02480021C0F88012FCE700004142A8
:1020500010B50B4C0949C4E900100020A060E060F5
:102060002061A0610C2060612046FEF79FFF206880
:10207000C16841F02001C16010BD000000100140A6
:1020800028040020000000000000000001020304FA
:10209000060708090000000001020304BC20000834
:1020A0000000002028000000101E0008E4200008A6
:1020B00028000020000A0000201E00080024F40070
:1020C0000000000000000000000000000000000010
:1020D0000000000000000000000000000000000000
:0420E00000000000FC
:040000050800018965
:00000001FF
