:020000040800F2
:10000000280900209D010008330E00085B0D000840
:10001000310E0008350200088D15000800000000B0
:10002000000000000000000000000000AB1000080D
:100030003702000800000000A91000084111000864
:10004000B7010008B7010008B7010008B7010008B0
:10005000B7010008B7010008B7010008B7010008A0
:10006000B7010008B7010008B7010008B701000890
:10007000B7010008B7010008B7010008B701000880
:10008000B7010008B7010008B7010008B701000870
:10009000B7010008B7010008B7010008B701000860
:1000A000B7010008B7010008B7010008B701000850
:1000B000B7010008B7010008B7010008B701000840
:1000C000B7010008B7010008B7010008B701000830
:1000D000B701000861150008B7010008B701000862
:1000E000B7010008B7010008B7010008B701000810
:1000F000B7010008B7010008B7010008B701000800
:10010000B7010008B7010008B7010008B7010008EF
:10011000B7010008B7010008B7010008B7010008DF
:10012000B7010008B7010008B7010008B7010008CF
:10013000B7010008B7010008B7010008B7010008BF
:10014000B7010008B7010008B7010008B7010008AF
:10015000B7010008B7010008B7010008B70100089F
:10016000B7010008B7010008B7010008B70100088F
:10017000B7010008B7010008B7010008000000003F
:10018000B7010008B7010008DFF80CD000F040F814
:10019000004800471116000828090020064880473B
:1001A00006480047FEE7FEE7FEE7FEE7FEE7FEE75C
:1001B000FEE7FEE7FEE7FEE74511000889010008BB
:1001C000D2B201E000F8012B491EFBD27047002299
:1001D000F6E710B513460A4604461946FFF7F0FF46
:1001E000204610BD421C10F8011B0029FBD1801ACB
:1001F000704710B5002200E0521C835C8C5CA34267
:1002000001D1002BF8D1D8B2E1B2401A10BD0000E4
:10021000064C074D06E0E06840F0010394E8070053
:1002200098471034AC42F6D3FFF7B2FF30170008FE
:1002300050170008FEE7704790F83510022903D0E8
:100240008021416501207047052180F83510006844
:10025000016821F001010160002070472DE9F84F8D
:10026000DFF88C91002209F1040A0AF1040B4FF027
:100270000F080BF1040E01260B6896403340B34281
:1002800071D14C68022C01D0122C11D1D40800EB92
:1002900084073D6A5407E40E08FA04FC25EA0C05BD
:1002A000D1F810C00CFA04FC4CEA050CC7F820C0C9
:1002B00007685400032591F804C0A5400CF0030C16
:1002C000AF430CFA04FC4CEA070CC0F800C04F68BE
:1002D000012F05D0022F03D0112F01D0122F11D1E1
:1002E0008768D1F80CC0AF430CFA04FC4CEA070C49
:1002F000C0F808C04768B7430E79C6F300169640A9
:100300003E434660C668AE438D68A5403543C56030
:100310004C68E40065D5374C256845F48045256078
:10032000246822F0030504F480440094324C2E1912
:10033000D6F808789407250F08FA05F4A7432F4C40
:10034000A04201D1002424E02D4CA04201D101247F
:100350001FE02C4CA04201D102241AE02A4CA042FA
:1003600002D1032415E03CE0284CA04201D1042432
:100370000FE0274CA04201D105240AE0254CA04201
:1003800001D1062405E0244CA04201D1072400E05D
:100390000824AC403C43C6F80848D9F800404D4614
:1003A0004E689C43F60300D51C432C60DAF80040ED
:1003B00055464E689C43B60300D51C432C60DBF8C1
:1003C00000405D464E689C43F60200D51C432C60FD
:1003D000DEF8004075464E689C43B60200D51C43CB
:1003E0002C60521C102AFFF446AFBDE8F88F0000C5
:1003F000003C01404438024000300140000002400F
:100400000004024000080240000C024000100240BC
:100410000014024000180240001C02400AB1816131
:1004200070470904FBE7000001480068000C7047B2
:10043000002004E00148006870470000040000202C
:1004400002480168491C0160704700000400002058
:10045000094810B5016841F400710160016841F478
:1004600080610160052000F049F80F2000F006F8D7
:1004700000F018F8002010BD003C024010B5044602
:1004800007484FF47A710068B0FBF1F000F000FB10
:1004900000222146501E00F011F8002010BD00007F
:1004A00000000020704700F01F0201219140400928
:1004B000800000F1E020C0F800117047F0B40E4B4E
:1004C0001B68C3F30223C3F10704042C00D90424DE
:1004D0001D1D072D01D2002300E0DB1E012606FAB8
:1004E00004F56D1E0D409D409E40761E164045EA67
:1004F0000601F0BC00F09EBC0CED00E0064A00F0E6
:10050000070110684FF6FF03184040EA0120034935
:1005100008431060704700000CED00E00000FA0591
:100520002DE9F047DFF85C9104460E46D9F800004B
:1005300000F00F01F0B28046B14207D289F8000006
:10054000D9F8000000F00F00B04271D120784E4F72
:10055000800705D53868A16820F0F00008433860AE
:100560002078C00756D048496068083901281AD059
:1005700002281BD0032819D009688907002957DAF7
:10058000396821F0030101433960FFF753FF054645
:10059000606841F28831012811D002281CD003285C
:1005A0008A4625D032E009688903E7E709688901AE
:1005B000E4E7FFF73FFF411B514501D923E08A469D
:1005C0003868C0F381000128F3D123E0FFF732FF40
:1005D000411B514501D916E08A463868C0F38100B5
:1005E0000228F3D116E0FFF725FF411B51450AD839
:1005F0003868C0F381000328F5D10BE0FFF71AFF3C
:10060000411B514502D90320BDE8F087386810F03E
:100610000C0FF3D1D9F80010484601F00F01B14298
:1006200008D980F80080006800F00F00B04201D0C7
:100630000120E9E72078400705D53868E16820F413
:10064000E050084338602078000706D538682169F3
:1006500020F4604040EAC100386000F04BF839688F
:10066000F02292FAA2F201F0F001B2FA82F2D14045
:10067000064A515CC840064908600F20FFF7FEFE9D
:100680000020C1E7003C024008380240181700086B
:100690000000002008480949006809684FF4E0524A
:1006A00092FAA2F201F4E051B2FA82F2D140044A85
:1006B000515CC8407047000000000020083802402C
:1006C0002817000808480949006809684FF4604283
:1006D00092FAA2F201F46041B2FA82F2D140044AE5
:1006E000515CC840704700000000002008380240FC
:1006F0002817000830B51948006810F00C01184898
:1007000012D0441004290ED008290DD1134A121F0B
:100710001168136801F03F015D0247F6C07304D50C
:10072000B4FBF1F003E0204630BDB0FBF1F01168FE
:10073000194093FAA3F3B3FA83F3D94048431168FD
:100740004FF4403292FAA2F201F44031B2FA82F24E
:10075000D140491C4900B0FBF1F030BD08380240DF
:100760000024F4002DE9F84F04460078DFF8F4A2E5
:10077000BD4DC00748D0DAF800105046C1F38101E2
:10078000012908D00068C0F3810002280AD1281D81
:100790000068400206D52868800335D560680028C7
:1007A00070D031E06068B0F5803F10D0B0F5A02F78
:1007B000286810D020F480302860286820F4802039
:1007C00028606068A0B1FFF735FE06460CE0286897
:1007D00040F48030F4E740F480202860F7E7FFF72A
:1007E00029FE801B642873D828688003F7D50BE0A6
:1007F000FFF720FE064604E0FFF71CFE801B64287E
:10080000F1D828688003F7D42078DFF86082800769
:100810004FF0010B4FF0000943D5DAF800105046B5
:1008200011F00C0F4FF0F80709D00068C0F38100F9
:1008300002280BD18B48001F0068400206D42868AC
:10084000800713D5E06801281CD10FE0E068D0B123
:10085000C8F800B0FFF7EEFD064604E0FFF7EAFD3A
:10086000801B0228BFD828688007F7D5286897FA28
:10087000A7F22169B2FA82F220F0F8009140084311
:1008800028600EE0EBE0C8F80090FFF7D3FD0646C5
:1008900004E0FFF7CFFD801B022819D828688007E5
:1008A000F7D42078000722D56E4F714861696C3704
:1008B00079B1C0F800B0FFF7BDFD064604E0FFF7D0
:1008C000B9FD801B022803D838688007F7D50EE0F1
:1008D00079E0C0F80090FFF7ADFD064604E0FFF7B1
:1008E000A9FD801B02286ED838688007F7D42078CD
:1008F000400750D55B483830016841F080510160B5
:1009000000685C4F00F080500090386840F48070C0
:100910003860FFF78FFD064604E0FFF78BFD801B74
:10092000022850D83868C005F7D54E4FA068683700
:1009300001280FD00528386810D020F00100386059
:10094000386820F004003860A068B0B1FFF772FD8D
:1009500006460EE0386840F00100F4E740F004007D
:100960003860F7E7FFF766FD811B41F2883081426E
:100970006DD838688007F5D50DE0FFF75BFD0646BA
:1009800006E0FFF757FD811B41F2883081425ED8B7
:1009900038688007F5D4A069F0B3DAF80010C1F325
:1009A000810102295BD00228484605D0C8F86000C2
:1009B000FFF740FD04464DE04746C8F86000FFF7EA
:1009C00039FD064605E042E0FFF734FD801B0228B2
:1009D0003DD828688001F7D4D4E90701084347F6D9
:1009E000C07292FAA2F2616AB2FA82F29140A26AED
:1009F0004FF0FF3303EB52024FF4403393FAA3F36B
:100A0000B3FA83F39A4011434FF0706292FAA2F264
:100A10000843B2FA82F200E01FE0E16A9140084325
:100A20001049091F0860C7F860B0FFF703FD0446CE
:100A300004E0FFF7FFFC001B022808D828688001AB
:100A4000F7D50AE0FFF7F6FC001B022802D90320C5
:100A5000BDE8F88F28688001F4D40020F8E7012071
:100A6000F6E7000008380240003802400000474224
:100A7000800E4742007000404FF0E02104280869D2
:100A800003D020F004000861704740F00400FAE74A
:100A900010B5401EB0F1807F01D3012010BD4FF092
:100AA000E02460610F21601700F0C4F90020A0610C
:100AB00007202061002010BD704710F8391F4078D2
:100AC0000843704770B5026804461068D1685369DE
:100AD00010F00F0F50D003F0010501F4907635436C
:100AE0005DD0C20705D0CA0503D5E26B42F0010212
:100AF000E263420705D5DA0703D0E26B42F0020257
:100B0000E263820705D5DA0703D0E26B42F0040204
:100B1000E263020705D5DA0703D0E26B42F0080270
:100B2000E263E26B002A33D0800604D5880602D542
:100B3000204600F047FB20684069E16BC0F380105D
:100B4000090700D428B3204600F02EFB2068416935
:100B500049061AD5416921F040014161606BA0B19D
:100B60001B490165606BFFF767FB002810D0606BC5
:100B7000016DBDE870400847830610D58B060ED581
:100B80002046BDE8704000F01DBB2046FFF794FFF3
:100B900070BD2046FFF790FF0020E06370BD0306A4
:100BA00006D50B0604D52046BDE8704000F0A6BC73
:100BB0004006F3D54806F1D5D168204621F0400122
:100BC000D160202184F8391000F0C6F870BD000013
:100BD0009911000870B5040004D094F8390000257C
:100BE00010B106E0012070BD84F83850204600F0B6
:100BF00023F8242084F839002068C16821F40051CA
:100C0000C160204600F024FB2068016921F4904176
:100C100001612068416921F02A0141612068C168B1
:100C200041F40051C160E563202084F8390084F864
:100C30003A00002070BD000010B500681A4986B067
:100C400088422FD11948016841F001010160006814
:100C500000F00100059015481430016841F01001C2
:100C600001600068012100F0100005904FF4007051
:100C700000900220CDE90101039007200C4C049064
:100C800069462046FFF7EAFA211500916946204699
:100C9000FFF7E4FA2520FFF706FC03221146252082
:100CA000FFF70CFC06B010BD0010014030380240C8
:100CB0000000024090F83A30202B1DD1D1B1CAB1CA
:100CC00090F83830012B17D081628285C2850021CF
:100CD000C163222280F83A2080F8381001684A69FE
:100CE00042F001024A610068C16841F49071C1603C
:100CF00000207047012070470220704730B500681F
:100D0000124988420DD1124AD088010409D402F157
:100D10000201440409784FF0000306D50A2901D0E6
:100D2000D38030BD40F400400DE00D2909D0C0F360
:100D30000D04084D401C80B22955D080C728EFD83B
:100D400030BD40F48040D08030BD00000010014034
:100D50000C000020600400207047FEE730B5144C02
:100D600087B00020216841F0400121602168012501
:100D700001F0400105914FF43851CDE900100320F6
:100D8000CDE9025069460B48FFF768FA206840F049
:100D9000010020602068009500F00100059002200D
:100DA000029069460448FFF759FA07B030BD0000C9
:100DB000303802400018024000000240F0B51948E7
:100DC00087B0016841F020010160016801F0200155
:100DD0000591016841F00201016000684FF48074E0
:100DE00000F0020005900120CDE9004002900320B0
:100DF0000D4E039069463046FFF730FA0B4FA500C1
:100E0000694638460095FFF729FA00222146304608
:100E1000FFF704FB002229463846FFF7FFFA07B028
:100E2000F0BD0000303802400004024000140240CF
:100E3000FEE770470907090E002806DA00F00F00E8
:100E400000F1E02080F8141D704700F1E02080F8E8
:100E50000014704710B40021084B0A46002003EB31
:100E6000C004401CC0B262548028F8D3491CC9B2E7
:100E70000829F3D310BC00F0CFB800001400002004
:100E800070B55F4886B00026016841F0010101603D
:100E9000016801F001010591016841F00201016062
:100EA000016801F002010591016841F0040101604F
:100EB000016801F004010591016841F00801016039
:100EC000016801F008010591016841F0100101601D
:100ED0000068012400F0100005901020CDE9000406
:100EE0000220CDE9024069464648FFF7B7F94FF4C2
:100EF000E050009069464448FFF7B0F94FF4425083
:100F0000009069464148FFF7A9F94148C0F8B4424A
:100F1000C0F8B0423F4DC5F8B042C5F8AC42C5F884
:100F2000A862642005F52A7500F04AFB2C600021B8
:100F3000AE2000F095F80021D52000F091F80021B6
:100F4000502000F08DF80021A82000F089F8002141
:100F50003F2000F085F80021D32000F081F8002127
:100F6000084600F07DF80021402000F079F80021CB
:100F70008D2000F075F80021142000F071F8002198
:100F8000202000F06DF80021022000F069F8002117
:100F9000A12000F065F80021C02000F061F80021D8
:100FA000DA2000F05DF80021122000F059F800214D
:100FB000812000F055F80021EF2000F051F80021C9
:100FC000D92000F04DF80021F12000F049F800216F
:100FD000DB2000F045F80021302000F041F800212E
:100FE000A42000F03DF80021A62000F039F80021EF
:100FF000AF2000F035F8FFF72DFF06B070BD000000
:10100000303802400000024000040240000C024060
:10101000008041420080404270B5104E002505F12D
:10102000B000C0B2002100F01BF80021084600F01B
:1010300017F80021102000F013F8002406EBC4007C
:101040000121405D00F00CF8641CE4B2802CF5D363
:101050006D1CEDB2082DE2D370BD0000140000201D
:1010600070B50F4DC5F8AC120023C5F8B0320D4A6B
:1010700019460124C2F8B032060602D5C2F8B442BD
:1010800001E0C2F8B432C2F8B0424006491C000E7A
:10109000C9B20829EED3C5F8B042C5F8AC4270BD5C
:1010A00000804042008041427047704770B5214C3B
:1010B00092B00025266846F080562660246804F029
:1010C000805411941C4C266846F48046266024689F
:1010D0000DF1240C04F480441194012400942404A0
:1010E0000194022406948CE80D006605CDE90761A1
:1010F0006846FFF737FB00B1FEE70CA90F2081E837
:1011000031004FF4A0500F904FF480501090052103
:101110000CA8FFF705FA00B1FEE7FFF785F941F2E9
:101120000101884204D10548016841F480710160E1
:1011300012B070BD4038024000700040003C0240D8
:10114000FFF77EB91048016841F4700101600F4853
:10115000016841F0010101600C4A00210832116070
:1011600002680B4B1A400260031D0A4A1A600268AB
:1011700022F48022026005480C30016002495806C2
:10118000803908607047000088ED00E000380240B8
:10119000FFFFF6FE1030002410B5806B0021C185E2
:1011A000C184FFF789FC10BD0168CA6822F49072FF
:1011B000CA6001684A6922F001024A61202180F870
:1011C0003A10704710B590F83A10222901D0022049
:1011D00010BD8168B1F5805F11D0016900290168F7
:1011E0001FD0496801F07F03816A4A1C82620B703C
:1011F000C18D491E0904090CC18518D026E0026979
:10120000816A002A0268526805D0D2B20A80816AD7
:10121000491C8162ECE7C2F308020A80816A891CDA
:10122000F7E74A68816A4B1C83620A70E0E701684D
:10123000CA6822F49072CA6001684A6922F0010209
:101240004A61202180F83A10FFF758FD002010BDB8
:101250002DE9F04104460068016921F44052E1683B
:10126000114301612068C16849F20C62914323690E
:10127000A268E5691A4363692B431A430A43C260B3
:1012800020684169A26921F440710A434261E06922
:101290006425B0F5004F974A974920684FF032080F
:1012A0003FD0884201D090427CD1FFF70BFA00EB8F
:1012B000C00101EB001061688900B0FBF1F6FFF797
:1012C00001FA00EBC00101EB001061688900B0FB7E
:1012D000F1F0B0FBF5F06FF01801484306EB800128
:1012E00008EB0110B0FBF5F000F0F006FFF7EAF9AB
:1012F00000EBC00101EB001061688900B0FBF1F068
:10130000B0FBF5F006EB0016FFF7DCF900EBC001CF
:1013100001EB001061688900B0FBF1F7FFF7D2F92B
:10132000D2E0884201D090423DD1FFF7CBF900EBEB
:10133000C00101EB001061684900B0FBF1F0B0FBA7
:10134000F5F00601FFF7BEF900EBC00101EB00105C
:1013500061684900B0FBF1F7FFF7B4F900EBC00199
:1013600001EB001061684900B0FBF1F0B0FBF5F053
:101370006FF01801484307EB800108EBC100B0FB98
:10138000F5F000F0F80006EB4006FFF79BF900EBE4
:10139000C00101EB001061684900B0FBF1F7FFF7F5
:1013A00091F93CE055E0FFF775F900EBC00101EB66
:1013B000001061684900B0FBF1F0B0FBF5F00601E8
:1013C000FFF768F900EBC00101EB0010616849000C
:1013D000B0FBF1F7FFF75EF900EBC00101EB001085
:1013E00061684900B0FBF1F0B0FBF5F06FF0180157
:1013F000484307EB800108EBC100B0FBF5F000F0BB
:10140000F80006EB4006FFF745F900EBC00101EBE1
:10141000001061684900B0FBF1F7FFF73BF900EB02
:10142000C00101EB001061684900B0FBF1F0B0FBB6
:10143000F5F06FF01801484307EB800108EBC1009D
:10144000B0FBF5F000F00700216830448860BDE88B
:10145000F081FFF71FF900EBC00101EB001061689C
:101460008900B0FBF1F6FFF715F900EBC00101EBC5
:10147000001061688900B0FBF1F0B0FBF5F06FF08F
:101480001801484306EB800108EB0110B0FBF5F0B2
:1014900000F0F006FFF7FEF800EBC00101EB0010D2
:1014A00061688900B0FBF1F0B0FBF5F006EB0016C7
:1014B000FFF7F0F800EBC00101EB00106168890054
:1014C000B0FBF1F7FFF7E6F800EBC00101EB00100D
:1014D00061688900B0FBF1F0B0FBF5F06FF0180126
:1014E000484307EB800108EB0110B0FBF5F000F07A
:1014F0000F00A9E7001401400010014090F83910D6
:10150000212901D0022070478168B1F5805F016A0E
:101510000BD04A1C0262026809785160C18C491ED6
:101520000904090CC1840ED017E009880268C1F3D0
:101530000801516001690029016A02D0491C016259
:10154000ECE7891CFBE70168CA6822F08002CA60E8
:101550000068C16841F04001C16000207047000090
:1015600010B50848FFF7AEFA0648FFF7A6FA20289C
:10157000FAD1012204490348FFF79CFB0028F8D167
:1015800010BD0000200400200E000020FEE702E055
:1015900008C8121F08C1002AFAD1704770470020FE
:1015A00001E001C1121F002AFBD1704710B50446AB
:1015B0000420FFF761FA0148046010BD0800002014
:1015C00070B5054600244FF47A7603E0304600F00B
:1015D00005F8641CAC42F9D370BD000070B54FF043
:1015E000E02500216C69094AAB6912685043AA6979
:1015F0009A42FCD002D2A3EB020302E0A4EB020663
:101600003344194413468142F1D370BD08000020D1
:10161000B2B0FEF71DFF0723022208214FF4A87085
:10162000FFF744FDA820FFF7C1FF4FF4E13000F0C1
:1016300059F8FFF7C3FBFFF791FBFFF721FC204CA4
:10164000DFF88080DFF880A04FF480754FF4806968
:101650002088010410D5C3B200206E461B4F1C49E0
:1016600006E03A5C32540A685206FCD5401C80B24F
:101670009842F6D30020208016A16846FEF7B9FDF7
:10168000B8B116A16846FEF7B4FD0028E0D10022EB
:1016900029464046FEF7C2FE012249465046FEF763
:1016A000BDFE6846FEF79EFD01466846FEF78FFDCB
:1016B000CEE7012229464046FEF7B0FE0022ECE7C5
:1016C00012000020000402400014024060040020C8
:1016D00000100140626567696E000000636C6F7303
:1016E0006500000010B50B4C0949C4E9001000204A
:1016F000A060E0602061A0610C2060612046FFF7DF
:1017000069FA2068C16841F02001C16010BD000085
:101710000010014020040020000000000000000034
:101720000102030406070809000000000102030487
:101730005017000800000020140000008E1500085B
:101740006417000814000020140900009E1500080A
:101750000024F40000000000000000000000000071
:041760000000000085
:040000050800018965
:00000001FF
